{
  "_format": "hh-sol-artifact-1",
  "contractName": "TouristEscrow",
  "sourceName": "contracts/TouristEscrow.sol",
  "abi": [
    {
      "inputs": [
        {
          "internalType": "address payable",
          "name": "_restaurant",
          "type": "address"
        }
      ],
      "stateMutability": "nonpayable",
      "type": "constructor"
    },
    {
      "anonymous": false,
      "inputs": [
        {
          "indexed": true,
          "internalType": "address",
          "name": "tourist",
          "type": "address"
        },
        {
          "indexed": false,
          "internalType": "uint256",
          "name": "amount",
          "type": "uint256"
        },
        {
          "indexed": false,
          "internalType": "string",
          "name": "allergy",
          "type": "string"
        }
      ],
      "name": "EscrowCreated",
      "type": "event"
    },
    {
      "anonymous": false,
      "inputs": [
        {
          "indexed": true,
          "internalType": "uint256",
          "name": "milestoneId",
          "type": "uint256"
        },
        {
          "indexed": false,
          "internalType": "uint256",
          "name": "amount",
          "type": "uint256"
        },
        {
          "indexed": true,
          "internalType": "address",
          "name": "beneficiary",
          "type": "address"
        }
      ],
      "name": "MilestoneReleased",
      "type": "event"
    },
    {
      "anonymous": false,
      "inputs": [
        {
          "indexed": true,
          "internalType": "address",
          "name": "tourist",
          "type": "address"
        },
        {
          "indexed": false,
          "internalType": "uint256",
          "name": "amount",
          "type": "uint256"
        }
      ],
      "name": "Refunded",
      "type": "event"
    },
    {
      "inputs": [],
      "name": "allergy",
      "outputs": [
        {
          "internalType": "string",
          "name": "",
          "type": "string"
        }
      ],
      "stateMutability": "view",
      "type": "function"
    },
    {
      "inputs": [
        {
          "internalType": "uint256",
          "name": "_groupSize",
          "type": "uint256"
        },
        {
          "internalType": "string",
          "name": "_allergy",
          "type": "string"
        }
      ],
      "name": "createEscrow",
      "outputs": [],
      "stateMutability": "payable",
      "type": "function"
    },
    {
      "inputs": [],
      "name": "groupSize",
      "outputs": [
        {
          "internalType": "uint256",
          "name": "",
          "type": "uint256"
        }
      ],
      "stateMutability": "view",
      "type": "function"
    },
    {
      "inputs": [
        {
          "internalType": "uint256",
          "name": "",
          "type": "uint256"
        }
      ],
      "name": "milestoneReleased",
      "outputs": [
        {
          "internalType": "bool",
          "name": "",
          "type": "bool"
        }
      ],
      "stateMutability": "view",
      "type": "function"
    },
    {
      "inputs": [],
      "name": "refundRemaining",
      "outputs": [],
      "stateMutability": "nonpayable",
      "type": "function"
    },
    {
      "inputs": [
        {
          "internalType": "uint256",
          "name": "milestoneId",
          "type": "uint256"
        }
      ],
      "name": "releaseMilestone",
      "outputs": [],
      "stateMutability": "nonpayable",
      "type": "function"
    },
    {
      "inputs": [],
      "name": "restaurant",
      "outputs": [
        {
          "internalType": "address payable",
          "name": "",
          "type": "address"
        }
      ],
      "stateMutability": "view",
      "type": "function"
    },
    {
      "inputs": [],
      "name": "totalDeposit",
      "outputs": [
        {
          "internalType": "uint256",
          "name": "",
          "type": "uint256"
        }
      ],
      "stateMutability": "view",
      "type": "function"
    },
    {
      "inputs": [],
      "name": "tourist",
      "outputs": [
        {
          "internalType": "address payable",
          "name": "",
          "type": "address"
        }
      ],
      "stateMutability": "view",
      "type": "function"
    },
    {
      "stateMutability": "payable",
      "type": "receive"
    }
  ],
  "bytecode": "0x608060405234801561001057600080fd5b50604051611cde380380611cde8339818101604052810190610032919061014b565b600073ffffffffffffffffffffffffffffffffffffffff168173ffffffffffffffffffffffffffffffffffffffff16036100a1576040517f08c379a0000000000000000000000000000000000000000000000000000000008152600401610098906101fb565b60405180910390fd5b80600160006101000a81548173ffffffffffffffffffffffffffffffffffffffff021916908373ffffffffffffffffffffffffffffffffffffffff1602179055505061021b565b600080fd5b600073ffffffffffffffffffffffffffffffffffffffff82169050919050565b6000610118826100ed565b9050919050565b6101288161010d565b811461013357600080fd5b50565b6000815190506101458161011f565b92915050565b600060208284031215610161576101606100e8565b5b600061016f84828501610136565b91505092915050565b600082825260208201905092915050565b7f446972656363696f6e2064656c2072657374617572616e746520696e76616c6960008201527f6461000000000000000000000000000000000000000000000000000000000000602082015250565b60006101e5602283610178565b91506101f082610189565b604082019050919050565b60006020820190508181036000830152610214816101d8565b9050919050565b611ab48061022a6000396000f3fe60806040526004361061008a5760003560e01c806366d374fd1161005957806366d374fd1461029a5780639e1c0295146102c5578063c13c1aa5146102dc578063ed16805814610307578063f6153ccd14610332576101e8565b8063138fcf92146101ed57806324454d5314610209578063317debf51461024657806363b635ea1461026f576101e8565b366101e857600073ffffffffffffffffffffffffffffffffffffffff1660008054906101000a900473ffffffffffffffffffffffffffffffffffffffff1673ffffffffffffffffffffffffffffffffffffffff16036101e657336000806101000a81548173ffffffffffffffffffffffffffffffffffffffff021916908373ffffffffffffffffffffffffffffffffffffffff1602179055503460028190555060016003819055506040518060400160405280600781526020017f4e696e67756e6100000000000000000000000000000000000000000000000000815250600490816101769190610f19565b5060008054906101000a900473ffffffffffffffffffffffffffffffffffffffff1673ffffffffffffffffffffffffffffffffffffffff167f9e7e9785060803c3942acaab3bde83342d5ab6a4516ca123b0b4fc881058959a346040516101dd9190611057565b60405180910390a25b005b600080fd5b610207600480360381019061020291906111dc565b61035d565b005b34801561021557600080fd5b50610230600480360381019061022b9190611238565b610501565b60405161023d9190611280565b60405180910390f35b34801561025257600080fd5b5061026d60048036038101906102689190611238565b610521565b005b34801561027b57600080fd5b5061028461093f565b604051610291919061129b565b60405180910390f35b3480156102a657600080fd5b506102af610945565b6040516102bc9190611319565b60405180910390f35b3480156102d157600080fd5b506102da6109d3565b005b3480156102e857600080fd5b506102f1610c79565b6040516102fe919061137c565b60405180910390f35b34801561031357600080fd5b5061031c610c9d565b604051610329919061137c565b60405180910390f35b34801561033e57600080fd5b50610347610cc3565b604051610354919061129b565b60405180910390f35b600034116103a0576040517f08c379a0000000000000000000000000000000000000000000000000000000008152600401610397906113e3565b60405180910390fd5b600073ffffffffffffffffffffffffffffffffffffffff1660008054906101000a900473ffffffffffffffffffffffffffffffffffffffff1673ffffffffffffffffffffffffffffffffffffffff161461042f576040517f08c379a000000000000000000000000000000000000000000000000000000000815260040161042690611475565b60405180910390fd5b336000806101000a81548173ffffffffffffffffffffffffffffffffffffffff021916908373ffffffffffffffffffffffffffffffffffffffff1602179055503460028190555081600381905550806004908161048c9190610f19565b5060008054906101000a900473ffffffffffffffffffffffffffffffffffffffff1673ffffffffffffffffffffffffffffffffffffffff167f9e7e9785060803c3942acaab3bde83342d5ab6a4516ca123b0b4fc881058959a34836040516104f5929190611495565b60405180910390a25050565b60056020528060005260406000206000915054906101000a900460ff1681565b600160009054906101000a900473ffffffffffffffffffffffffffffffffffffffff1673ffffffffffffffffffffffffffffffffffffffff163373ffffffffffffffffffffffffffffffffffffffff16146105b1576040517f08c379a00000000000000000000000000000000000000000000000000000000081526004016105a890611537565b60405180910390fd5b600073ffffffffffffffffffffffffffffffffffffffff1660008054906101000a900473ffffffffffffffffffffffffffffffffffffffff1673ffffffffffffffffffffffffffffffffffffffff1603610640576040517f08c379a0000000000000000000000000000000000000000000000000000000008152600401610637906115c9565b60405180910390fd5b60018110158015610652575060068111155b610691576040517f08c379a00000000000000000000000000000000000000000000000000000000081526004016106889061165b565b60405180910390fd5b6005600082815260200190815260200160002060009054906101000a900460ff16156106f2576040517f08c379a00000000000000000000000000000000000000000000000000000000081526004016106e9906116c7565b60405180910390fd5b6001811115610768576005600060018361070c9190611716565b815260200190815260200160002060009054906101000a900460ff16610767576040517f08c379a000000000000000000000000000000000000000000000000000000000815260040161075e906117bc565b60405180910390fd5b5b60016005600083815260200190815260200160002060006101000a81548160ff0219169083151502179055506000600682036107a6574790506107b8565b60066002546107b5919061180b565b90505b478111156107fb576040517f08c379a00000000000000000000000000000000000000000000000000000000081526004016107f2906118ae565b60405180910390fd5b6000600160009054906101000a900473ffffffffffffffffffffffffffffffffffffffff1673ffffffffffffffffffffffffffffffffffffffff1682604051610843906118ff565b60006040518083038185875af1925050503d8060008114610880576040519150601f19603f3d011682016040523d82523d6000602084013e610885565b606091505b50509050806108c9576040517f08c379a00000000000000000000000000000000000000000000000000000000081526004016108c090611960565b60405180910390fd5b600160009054906101000a900473ffffffffffffffffffffffffffffffffffffffff1673ffffffffffffffffffffffffffffffffffffffff16837fefa981f9388f17167597c5fee4fc3d24b2b772263e1accbf61cfb2d219fc40f584604051610932919061129b565b60405180910390a3505050565b60035481565b6004805461095290610d32565b80601f016020809104026020016040519081016040528092919081815260200182805461097e90610d32565b80156109cb5780601f106109a0576101008083540402835291602001916109cb565b820191906000526020600020905b8154815290600101906020018083116109ae57829003601f168201915b505050505081565b600160009054906101000a900473ffffffffffffffffffffffffffffffffffffffff1673ffffffffffffffffffffffffffffffffffffffff163373ffffffffffffffffffffffffffffffffffffffff1614610a63576040517f08c379a0000000000000000000000000000000000000000000000000000000008152600401610a5a90611537565b60405180910390fd5b600073ffffffffffffffffffffffffffffffffffffffff1660008054906101000a900473ffffffffffffffffffffffffffffffffffffffff1673ffffffffffffffffffffffffffffffffffffffff1603610af2576040517f08c379a0000000000000000000000000000000000000000000000000000000008152600401610ae9906115c9565b60405180910390fd5b600047905060008111610b3a576040517f08c379a0000000000000000000000000000000000000000000000000000000008152600401610b31906119f2565b60405180910390fd5b60008060009054906101000a900473ffffffffffffffffffffffffffffffffffffffff1673ffffffffffffffffffffffffffffffffffffffff1682604051610b81906118ff565b60006040518083038185875af1925050503d8060008114610bbe576040519150601f19603f3d011682016040523d82523d6000602084013e610bc3565b606091505b5050905080610c07576040517f08c379a0000000000000000000000000000000000000000000000000000000008152600401610bfe90611a5e565b60405180910390fd5b60008054906101000a900473ffffffffffffffffffffffffffffffffffffffff1673ffffffffffffffffffffffffffffffffffffffff167fd7dee2702d63ad89917b6a4da9981c90c4d24f8c2bdfd64c604ecae57d8d065183604051610c6d919061129b565b60405180910390a25050565b60008054906101000a900473ffffffffffffffffffffffffffffffffffffffff1681565b600160009054906101000a900473ffffffffffffffffffffffffffffffffffffffff1681565b60025481565b600081519050919050565b7f4e487b7100000000000000000000000000000000000000000000000000000000600052604160045260246000fd5b7f4e487b7100000000000000000000000000000000000000000000000000000000600052602260045260246000fd5b60006002820490506001821680610d4a57607f821691505b602082108103610d5d57610d5c610d03565b5b50919050565b60008190508160005260206000209050919050565b60006020601f8301049050919050565b600082821b905092915050565b600060088302610dc57fffffffffffffffffffffffffffffffffffffffffffffffffffffffffffffffff82610d88565b610dcf8683610d88565b95508019841693508086168417925050509392505050565b6000819050919050565b6000819050919050565b6000610e16610e11610e0c84610de7565b610df1565b610de7565b9050919050565b6000819050919050565b610e3083610dfb565b610e44610e3c82610e1d565b848454610d95565b825550505050565b600090565b610e59610e4c565b610e64818484610e27565b505050565b5b81811015610e8857610e7d600082610e51565b600181019050610e6a565b5050565b601f821115610ecd57610e9e81610d63565b610ea784610d78565b81016020851015610eb6578190505b610eca610ec285610d78565b830182610e69565b50505b505050565b600082821c905092915050565b6000610ef060001984600802610ed2565b1980831691505092915050565b6000610f098383610edf565b9150826002028217905092915050565b610f2282610cc9565b67ffffffffffffffff811115610f3b57610f3a610cd4565b5b610f458254610d32565b610f50828285610e8c565b600060209050601f831160018114610f835760008415610f71578287015190505b610f7b8582610efd565b865550610fe3565b601f198416610f9186610d63565b60005b82811015610fb957848901518255600182019150602085019450602081019050610f94565b86831015610fd65784890151610fd2601f891682610edf565b8355505b6001600288020188555050505b505050505050565b610ff481610de7565b82525050565b600082825260208201905092915050565b7f4e696e67756e6100000000000000000000000000000000000000000000000000600082015250565b6000611041600783610ffa565b915061104c8261100b565b602082019050919050565b600060408201905061106c6000830184610feb565b818103602083015261107d81611034565b905092915050565b6000604051905090565b600080fd5b600080fd5b6110a281610de7565b81146110ad57600080fd5b50565b6000813590506110bf81611099565b92915050565b600080fd5b600080fd5b6000601f19601f8301169050919050565b6110e9826110cf565b810181811067ffffffffffffffff8211171561110857611107610cd4565b5b80604052505050565b600061111b611085565b905061112782826110e0565b919050565b600067ffffffffffffffff82111561114757611146610cd4565b5b611150826110cf565b9050602081019050919050565b82818337600083830152505050565b600061117f61117a8461112c565b611111565b90508281526020810184848401111561119b5761119a6110ca565b5b6111a684828561115d565b509392505050565b600082601f8301126111c3576111c26110c5565b5b81356111d384826020860161116c565b91505092915050565b600080604083850312156111f3576111f261108f565b5b6000611201858286016110b0565b925050602083013567ffffffffffffffff81111561122257611221611094565b5b61122e858286016111ae565b9150509250929050565b60006020828403121561124e5761124d61108f565b5b600061125c848285016110b0565b91505092915050565b60008115159050919050565b61127a81611265565b82525050565b60006020820190506112956000830184611271565b92915050565b60006020820190506112b06000830184610feb565b92915050565b60005b838110156112d45780820151818401526020810190506112b9565b60008484015250505050565b60006112eb82610cc9565b6112f58185610ffa565b93506113058185602086016112b6565b61130e816110cf565b840191505092915050565b6000602082019050818103600083015261133381846112e0565b905092915050565b600073ffffffffffffffffffffffffffffffffffffffff82169050919050565b60006113668261133b565b9050919050565b6113768161135b565b82525050565b6000602082019050611391600083018461136d565b92915050565b7f4465626520656e7669617220666f6e646f7320656e2045544800000000000000600082015250565b60006113cd601983610ffa565b91506113d882611397565b602082019050919050565b600060208201905081810360008301526113fc816113c0565b9050919050565b7f456c206669646569636f6d69736f207961206861207369646f20696e6963696160008201527f6c697a61646f0000000000000000000000000000000000000000000000000000602082015250565b600061145f602683610ffa565b915061146a82611403565b604082019050919050565b6000602082019050818103600083015261148e81611452565b9050919050565b60006040820190506114aa6000830185610feb565b81810360208301526114bc81846112e0565b90509392505050565b7f536f6c6f20656c2072657374617572616e746520286f776e657229207075656460008201527f6520656a656375746172206573746120616363696f6e00000000000000000000602082015250565b6000611521603683610ffa565b915061152c826114c5565b604082019050919050565b6000602082019050818103600083015261155081611514565b9050919050565b7f456c206669646569636f6d69736f206e6f206861207369646f20696e6963696160008201527f6c697a61646f0000000000000000000000000000000000000000000000000000602082015250565b60006115b3602683610ffa565b91506115be82611557565b604082019050919050565b600060208201905081810360008301526115e2816115a6565b9050919050565b7f4944206465206869746f20696e76616c69646f2028646562652073657220646560008201527f6c203120616c2036290000000000000000000000000000000000000000000000602082015250565b6000611645602983610ffa565b9150611650826115e9565b604082019050919050565b6000602082019050818103600083015261167481611638565b9050919050565b7f45737465206869746f20796120667565206c6962657261646f00000000000000600082015250565b60006116b1601983610ffa565b91506116bc8261167b565b602082019050919050565b600060208201905081810360008301526116e0816116a4565b9050919050565b7f4e487b7100000000000000000000000000000000000000000000000000000000600052601160045260246000fd5b600061172182610de7565b915061172c83610de7565b9250828203905081811115611744576117436116e7565b5b92915050565b7f456c206869746f20616e746572696f72206e6f206861207369646f206c69626560008201527f7261646f00000000000000000000000000000000000000000000000000000000602082015250565b60006117a6602483610ffa565b91506117b18261174a565b604082019050919050565b600060208201905081810360008301526117d581611799565b9050919050565b7f4e487b7100000000000000000000000000000000000000000000000000000000600052601260045260246000fd5b600061181682610de7565b915061182183610de7565b925082611831576118306117dc565b5b828204905092915050565b7f53616c646f20696e737566696369656e746520656e20656c20636f6e7472617460008201527f6f00000000000000000000000000000000000000000000000000000000000000602082015250565b6000611898602183610ffa565b91506118a38261183c565b604082019050919050565b600060208201905081810360008301526118c78161188b565b9050919050565b600081905092915050565b50565b60006118e96000836118ce565b91506118f4826118d9565b600082019050919050565b600061190a826118dc565b9150819050919050565b7f5472616e7366657220746f2072657374617572616e74206661696c6564000000600082015250565b600061194a601d83610ffa565b915061195582611914565b602082019050919050565b600060208201905081810360008301526119798161193d565b9050919050565b7f4e6f2068617920666f6e646f732072656d616e656e74657320656e20656c206360008201527f6f6e747261746f00000000000000000000000000000000000000000000000000602082015250565b60006119dc602783610ffa565b91506119e782611980565b604082019050919050565b60006020820190508181036000830152611a0b816119cf565b9050919050565b7f526566756e6420746f20746f7572697374206661696c65640000000000000000600082015250565b6000611a48601883610ffa565b9150611a5382611a12565b602082019050919050565b60006020820190508181036000830152611a7781611a3b565b905091905056fea2646970667358221220334f3decb42e3bee6d97928ed631c427ee22690c19cafb2e746696af5f8c5bac64736f6c634300081c0033",
  "linkReferences": {},
  "deployedLinkReferences": {}
}